:020000040000FA
:1000000002004400000080FB7A007B0290007478BC
:100010002479018015E493A3AD82AE838A828B8319
:10002000F0A3AA82AB838D828E83D8E9D9E775824B
:100030005C75830974001200567582037583007421
:100040000012005675D0007581BF75100075110241
:10005000759F00020008C09FF59FE473D09F22D0D7
:1000600083D082C09FE493C0E0740193C0E0740227
:1000700093F59F22FFFFFFFF636F6D6275737469D5
:10008000626C656761733A256470706D0D0A0000DB
:100090000000000200000012005F420A0012005F30
:1000A000CC070012005F4B080012005F72080012BC
:1000B000005F510A0012005FF7090012005F090A91
:1000C0000012005FAA090012005FC3090012005F5E
:1000D000CE090012005FA3030012005FC6080012E1
:1000E000005FF00800C3E09608A3E09608A3E0963E
:1000F00008A3E096A2D265D03322C3E09608A3E01D
:100100009608A3E09608A3E09622E4CFC0E0E4CEF0
:10011000C0E0E4CDC0E0E4CCC0E075F020E626F617
:1001200008E633F608E633F608E633F6181818EC56
:1001300033FCED33FDEE33FEEF33FFC3EC9709EDF7
:100140009709EE9709EF97191919400FFFEC97FCE3
:1001500009ED97FD09EE97FE191906D5F0BFECF7EA
:1001600009EDF709EEF709EFF7191919D0E0FCD0FE
:10017000E0FDD0E0FED0E0FF22E4C396F608E4966E
:10018000F608E496F608E496F6226016080808C613
:10019000C313C618C613C618C613C618C613C6D5C9
:1001A000E0EA22E627F60809E637F60809E637F618
:1001B0000809E637F622E026F608A3E036F608A39B
:1001C000E036F608A3E036F622E0F608A3E0F608EB
:1001D000A3E0F608A3E0F622E6F008A3E6F008A301
:1001E000E6F008A3E6F022E0F8A3E0F9A3E0FAA322
:1001F000E0FB22E8F0A3E9F0A3EAF0A3EBF022CAC7
:10020000C0E0E6F0A308DAFAD0E0FA22B90010BBA9
:100210000008E88AF084F8AAF022E4FBC8FA22EB8E
:1002200070227B10C833C8C933C9335007C39AC37F
:10023000DBF280069A50012ADBEAC833F4C8C933DE
:10024000F4C9FA2275F008E4C833C8C933C933C900
:100250009AC99B5004C92AC93BD5F0ECFBC833F4BA
:10026000C8E4C9FA22700422600D18C6C333C60858
:10027000C633C6D5E0F41822251010AF08F510409B
:100280000C15118008F51040021511D2AF2200C0E4
:10029000D0251010AF08F510500C05118008F5108E
:1002A00050020511D2AFD0D0222510F58210AF0830
:1002B000F510400C15118008F51040021511D2AF51
:1002C000851183222510F582E43511F5832225104E
:1002D000F8E43511F9222510FAE43511FB22E47314
:1002E0002510C582C0E0E51134FFC583C0E0E510EC
:1002F000C3958224F810AF08858311858210800889
:10030000858311858210D2AFCEF0A3E520F0A378CB
:1003100008E608F0A3DEFAEFF0A3E58124FAF8E698
:1003200008F0A3E608F0A3E608F0A30808E608F042
:10033000A3E608F0A315811581D0E0FED0E0F81502
:100340008115811581E8C0E0EEC0E022851183852A
:100350001082E0A3FEE0A3F5207808E0A3F608DF12
:10036000FAE0A3FFE0A3C0E0E0A3C0E0E0A3C0E0A8
:10037000E0A3C0E0E0A3C0E010AF08858210858351
:10038000118008858210858311D2AFD083D082027C
:10039000005C74028000C0E0F4041202A9D0E012F4
:1003A00001FF2274F01202E074F11202787401125B
:1003B00002C4EAF0A3EBF074091202C4ECF0A3ED5E
:1003C000F074071202C4E4F0A3801B741F1202C46D
:1003D00012077F74091202C41207851202DE740725
:1003E0001202C41207C3F074011202C4120796F974
:1003F00074011202C41207AD1202C4EAF0A3EBF0BA
:100400007425696015E970C374071202C412077F6E
:10041000740F12028E7F0802034C75080079007475
:10042000011202C41207AD1202C41207962498608A
:100430000924FC70127901E9800575080174011224
:1004400002C4EAF0A3EBF074011202C4120796F89A
:1004500074011202C41207AD1202C4EAF0A3EBF059
:10046000E8851082851183F0E508A2E092F0E9A208
:10047000E0B372F092F0E824A8700302055024F56E
:10048000601714700302052924F5607B24FC603496
:1004900024FB7003020550801874211202C4120755
:1004A0009B851082851183F012075F1202C4120728
:1004B0007A741F1202C412077F851082851183E0AF
:1004C000F90203D374211202C412079BFEA3E0FFBA
:1004D00012075F1202C4120769F08E828F83E0F95F
:1004E000A3AE82AF8370030203E7741F1202C4122B
:1004F000077F74091202C41207851202DE74071204
:1005000002C41207C380D27E087F00A2F074035099
:100510000A1202C4E4F0A3748080461202C4E4F01C
:10052000A3F0A3F0A37440804A7E0A7F00A2F07477
:1005300003500B1202C47410F0A37427802312021C
:10054000C4E4F0A374CAF0A3749AF0A3743B8023AC
:100550007E107F00A2F07403500E1202C4E4F0A3D8
:10056000EEF0A3E4F0A3800B1202C4E4F0A3F0A326
:10057000F0A3EEF0E508A2E05031851082851183EA
:10058000E0646470030206C074211202C41207B949
:10059000E4F50AF50B740B1202C478081201D812A4
:1005A000075F1202C4120769020632E9A2E04003A3
:1005B0000206B574211202C4120796FCA3E0FD8C5A
:1005C000828D831201E7740B1202C41201F3EC2432
:1005D00004F8E43DF974211202C412077A851082EE
:1005E000851183E06464704B90021B78081201C986
:1005F000740B1202C478081200E55037740B120213
:10060000C478081201C97808120179740B1202C467
:1006100078081201D8741F1202C412077F792D7452
:10062000091202C41207851202DE74071202C412F4
:1006300007C3F074031202C478081201C9740B12C4
:1006400002C478081200FA503874031202C4780CFD
:100650001201C98E088F09E4F50AF50B780C7908A8
:1006600012010A74031202C4780C1201D890021FFE
:1006700078081201C974031202C478081200FA50F3
:10068000B2740B1202C4780C1201C974031202C4B2
:1006900078081201C9780C790812010AE50C243097
:1006A000F9C3943A4040851082851183E0647870E4
:1006B000317427802F851082851183E06464701F58
:1006C00074211202C41207B93395E0F50AF50B74D0
:1006D0000B1202C478081201D8EC24020205D102E0
:1006E0000588740729F9741F1202C412077F740960
:1006F0001202C41207851202DE74071202C4120726
:10070000C3F0740B1202C4780C1201C974031202F4
:10071000C478081201C9780C790812010A740B1206
:1007200002C478081201D874031202C4780C1201B2
:10073000C98E088F09E4F50AF50B780C79081201C7
:100740000A74031202C4780C1201D874031202C492
:100750001201E7E8494A4B60030206810203E7EC15
:100760002402F8E43DF974212212076D22E0FAA375
:10077000E0F5838A82E8F0A3E92212076DF022E017
:10078000FAA3E0FB221207892212078D22E0F8A3C8
:10079000E0F583888222120789E02212079F221245
:1007A000078DE0FCA3E0FD8C828D83E022E0240134
:1007B000FAA3E03400FB74012212079FF508A3E0BE
:1007C000F50922E02401F0A3E034002274F01202C3
:1007D000E0E9FBEB60708B0875090074077808127C
:1007E0000265E4F50AF50BEBF87900E875F072A400
:1007F000C8AAF075F000A42AFA75F072E9A42AF9E3
:10080000880CE9F50D3395E0F50EF50F7808790CB5
:100810001201A3E5C65407780812018A85080C85E1
:10082000090D850A0E850B0F850C08850D09850EAF
:100830000A850F0B90020078081201B6E50C450DF1
:10084000450E450F70D67F0802034C74F71202E084
:10085000EAFEEBFF80077ADE7B031200A9EEF8EFD9
:10086000F9E824FFFEE934FFFFE84970E97F01025F
:10087000034C74F41202E0EAFCEBFDECF8EDF97ABB
:10088000FA7B0012020C880A890B850A08850B097D
:10089000ECF8EDF97AFA7B0012020C8A0A8B0BAEA7
:1008A0000AAF0B800579FA12009DA808A909E8246F
:1008B000FFF508E934FFF509E84970E9EEF912009F
:1008C0009D7F0402034CC082C0838A828B831209FD
:1008D00053E9F08A828B83E02401FCA3E03400FD1D
:1008E0008A828B83ECF0A3EDF0D083D08202005C8F
:1008F00074F61202E074FC12027874021202C4EA66
:10090000F0A3EBF0ECFAEDFB740E1202CE85108230
:10091000851183E8F0A3E9F0A810A91188088909D6
:10092000780812039274041202CE880889097808A4
:100930001203927CD97D001200D3740412028E74CB
:10094000021202C4120953E4F0740412028E7F02F0
:1009500002034CE0F8A3E0F58388822274C01202FF
:10096000787508007509001200971200AF1200B5E3
:100970007A0079001200C11200BB8A0A8B0B850A2B
:1009800008850B0978081203927C047D0274021218
:1009900002D61200DF740212028EAA10AB111200EE
:1009A000CD7A017B001200A380CD43F4C043F10255
:1009B00053F5DF75F8C075FC0A75FA3BE94A42FB4E
:1009C00002005C89F9A2EA50FCC2EA02005C74F7FA
:1009D0001202E0EAFEEBFF80128E828F83E0F912B2
:1009E00000C78E828F83A3AE82AF838E828F83E017
:1009F00070E77F0102034C43F22043F32053FDDFF5
:100A000075B6B543B43002005CC008C00975B6B510
:100A100043B43043B440E5B4A2E750FAE5BA131347
:100A2000543FFA7B00E5BBF50875090074047808AB
:100A3000120265E5084AFAE5094BFBD009D0080225
:100A4000005C53C6BFE59EA2E640FA53C6F802001A
:0E0A50005C53F4FC43FE03D291D29002005C92
:0400000500000044B3
:00000001FF
